:020000040000FA
:100000000C941C060C9444060C9444060C94440670
:100010000C9453230C9444060C9444060C9444060C
:100020000C9444060C9444060C9444060C94440628
:100030000C9444060C9444060C9444060C94440618
:100040000C9492210C9444060C9402220C94DC2112
:100050000C9444060C9444060C9444060C944406F8
:100060000C9434220C944406000000000B000100A4
:1000700000020B0B04F6030006050B02F60700074F
:100080000C0B02F61200080C0B01F61E00070B0BFE
:1000900002F62800070A0B02F7310003050B04F6ED
:1000A0003300020D0B05F63700020D0B04F63B0082
:1000B00007070B02F6420007070B02F84900030589
:1000C0000B02FF4B0009010B01FB4D0002020B0468
:1000D000FF4E00070D0B02F55A00070B0B02F664EA
:1000E00000050B0B03F66B00070B0B02F6750008FF
:1000F0000B0B01F68000060B0B03F68900070B0BB8
:1001000002F69300070B0B02F69D00070B0B02F69D
:10011000A700070B0B02F6B100070B0B02F6BB00A2
:1001200002080B04F9BD00030B0B03F9C200080819
:100130000B01F8CA0009040B01FACF0009080B01F2
:10014000F8D800070A0B02F7E100080C0B02F6EDE5
:10015000000B0A0B00F7FB00090A0B01F707010966
:100160000A0B01F71301090A0B01F71F01090A0B1A
:1001700001F72B01090A0B01F737010A0A0B01F7F6
:100180004401090A0B01F75001050A0B03F7570157
:10019000080A0B02F76101090A0B01F76D01080A51
:1001A0000B02F777010B0A0B00F78501090A0B0117
:1001B000F79101090A0B01F79D01080A0B01F7A746
:1001C00001090D0B01F7B601090A0B01F7C201077E
:1001D0000A0B02F7CB01090A0B01F7D701090A0B39
:1001E00001F7E3010B0A0B00F7F1010B0A0B00F713
:1001F000FF01090A0B01F70B02090A0B01F71702AD
:10020000070A0B02F72002020D0B05F62402070D68
:100210000B02F53002020D0B04F6340207050B0247
:10022000F639020B010B00023B0203030B03F53D01
:100230000209080B01F94602090B0B01F6530207EC
:10024000080B02F95A02090B0B01F6670208080BAA
:1002500001F96F02060B0B03F67802090B0B01F98B
:100260008502090B0B01F69202070A0B02F79B02AB
:10027000050D0B03F7A402080B0B02F6AF02070BE8
:100280000B02F6B90209080B01F9C20209080B01B9
:10029000F9CB0209080B01F9D402090B0B01F9E1B2
:1002A00002090B0B01F9EE0207080B03F9F502072F
:1002B000080B02F9FC02080A0B02F7060308080BF8
:1002C00001F90E0309080B01F9170309080B01F9DD
:1002D000200309080B01F92903090B0B01F9360367
:1002E00007080B02F93D03030D0B04F64203010D51
:1002F0000B05F64403030D0B04F6490307030B0239
:10030000FAAAA80CED2492482448912FE4897F286A
:10031000512240083E6240300E0181C3BE08087180
:1003200012238023B80E224470388102061A6546D3
:10033000C8ECE9245AAAA940A9555A8010224BE3D7
:10034000051100102047F10204006B48FF00F00285
:100350000810608104082041020800388A0C183017
:1003600060C18288E02728421084213E388A081024
:100370002082086103F87C0602021C06010101428A
:100380003C18A2928A28BF0821C07C8103E4404027
:10039000810388E01E41040B98B0C1C288E0FE04CE
:1003A0000820408204082040388A0C1447114183F9
:1003B0008CE0388A1C1868CE810413C0F00F6C00E2
:1003C000D2D2000304186060180403FF80001FF0FD
:1003D00040180300602060C0803D840830C20000E7
:1003E00000303C46828EB2A2A29F8080403C3C01FD
:1003F0004028090110420FC104409E3CFE21904854
:1004000067E209028141FF803EB0F030080402003B
:1004100080608F80FE219068140A050283437F006C
:10042000FF20900887C221008140FFC0FFA0500834
:1004300087C22100804078001E986C0A008020F856
:100440000B026087C0E3A0904827F2090482417143
:10045000C0F90842108427C01F02020202028282F1
:10046000C678E3A1110905832108844170C0E040EA
:1004700040404040414141FFE0EC194528A4A4948C
:10048000911202405C1CC3B0944A249249148A43DE
:1004900070801E319050180C060282630F00FE43DC
:1004A0004141427C404040F01C319050180C060203
:1004B00082631F04079230FE2190482423E11084B8
:1004C0004170C03ACD0A030180C1C778FFC46221E0
:1004D0000080402010081F00E3A090482412090467
:1004E00082220E00F1E81082104210220480500C8B
:1004F0000080F1E809112544A8550CA18C31843005
:10050000E3A088828080C090444171C0E3A08882CB
:100510008140402010081F00FD0A20810410218323
:10052000FCEAAAAAC0808103020404080810102073
:1005300020D55555C01051222820FFE088807E002C
:100540008047EC140A0CFBC020100BC61205028178
:1005500040B0B7803A8E0C0810109E03008047A46C
:10056000340A050281218F603C4381FF8080613E17
:100570003D043E410410410F803DA1A050281409C4
:100580000C7A01018780C020100BC6320904824119
:1005900020B8E01001C08102040811FC103E108454
:1005A0002108423F00C040404F445870484442C771
:1005B000702040810204081023F8B7646231188C5F
:1005C0004623915E31904824120905C73E31A03080
:1005D000180C058C7CDE309028140A0584BC402061
:1005E00038003DA1A0502814090C7A010080E0CE0B
:1005F000A1820408107C3A8D0B80F070DE4040FC34
:100600004040404040413EC34141414141433DE3C0
:10061000A090844220A05010E3C0924B2592A9984C
:1006200044E331050101411105C7E3A09084424034
:10063000A0601010083E00FD0820820810BF292489
:10064000A24926FFF889248A492C61243000000041
:1006500000003E5B4F5B3E3E6B4F6B3E1C3E7C3E64
:100660001C183C7E3C181C577D571C1C5E7F5E1C72
:1006700000183C1800FFE7C3E7FF0018241800FF2C
:10068000E7DBE7FF30483A060E2629792926407F26
:10069000050507407F05253F5A3CE73C5A7F3E1C35
:1006A0001C08081C1C3E7F14227F22145F5F005F21
:1006B0005F06097F017F006689956A6060606060FF
:1006C00094A2FFA29408047E040810207E20100843
:1006D000082A1C08081C2A08081E101010100C1EDE
:1006E0000C1E0C30383E3830060E3E0E0600000060
:1006F000000000005F00000007000700147F147F67
:1007000014242A7F2A122313086462364956205083
:100710000008070300001C2241000041221C002A9F
:100720001C7F1C2A08083E0808008070300008085A
:10073000080808000060600020100804023E5149CB
:10074000453E00427F400072494949462141494D9A
:10075000331814127F1027454545393C4A49493121
:1007600041211109073649494936464949291E00A0
:10077000001400000040340000000814224114144A
:10078000141414004122140802015909063E415D67
:10079000594E7C1211127C7F494949363E414141F4
:1007A000227F4141413E7F494949417F0909090171
:1007B0003E414151737F0808087F00417F4100207E
:1007C00040413F017F081422417F404040407F026A
:1007D0001C027F7F0408107F3E4141413E7F090992
:1007E00009063E4151215E7F09192946264949499A
:1007F0003203017F01033F4040403F1F2040201F44
:100800003F4038403F6314081463030478040361D5
:1008100059494D43007F41414102040810200041E5
:1008200041417F0402010204404040404000030770
:10083000080020545478407F2844443838444444C5
:1008400028384444287F385454541800087E09023C
:1008500018A4A49C787F0804047800447D400020FC
:1008600040403D007F1028440000417F40007C0450
:100870007804787C080404783844444438FC18240C
:10088000241818242418FC7C0804040848545454E0
:100890002404043F44243C4040207C1C2040201C75
:1008A0003C4030403C44281028444C9090907C447C
:1008B00064544C44000836410000007700000041B9
:1008C00036080002010204023C2623263C1EA1A198
:1008D00061123A4040207A3854545559215555797F
:1008E000412254547842215554784020545579403F
:1008F0000C1E5272123955555559395454545939A0
:10090000555454580000457C410002457D42000189
:10091000457C407D1211127DF0282528F07C54552D
:1009200045002054547C547C0A097F493249494986
:10093000323A4444443A324A4848303A4141217AB2
:100940003A42402078009DA0A07D3D4242423D3D7C
:100950004040403D3C24FF2424487E4943662B2FE1
:10096000FC2F2BFF0929F620C0887E090320545450
:1009700079410000447D413048484A3238404022A5
:100980007A007A0A0A727D0D19317D2629292F28CD
:10099000262929292630484D40203808080808080B
:1009A000080808382F10C8ACBA2F102834FA0000F5
:1009B0007B000008142A142222142A14085500551A
:1009C0000055AA55AA55AAFF55FF55FF000000FF84
:1009D00000101010FF00141414FF001010FF00FF8F
:1009E0001010F010F0141414FC001414F700FF00A1
:1009F00000FF00FF1414F404FC141417101F10104F
:100A00001F101F1414141F00101010F0000000001D
:100A10001F101010101F10101010F010000000FF19
:100A2000101010101010101010FF10000000FF1414
:100A30000000FF00FF00001F10170000FC04F4146A
:100A4000141710171414F404F40000FF00F7141422
:100A50001414141414F700F7141414171410101F9E
:100A6000101F141414F4141010F010F000001F10D4
:100A70001F0000001F14000000FC140000F010F024
:100A80001010FF10FF141414FF141010101F00009A
:100A90000000F010FFFFFFFFFFF0F0F0F0F0FFFFAD
:100AA000FF0000000000FFFF0F0F0F0F0F3844443E
:100AB0003844FC4A4A4A347E02020606027E027E1E
:100AC0000263554941633844443C04407E201E2063
:100AD00006027E020299A5E7A5991C2A492A1C4C08
:100AE0007201724C304A4D4D303048784830BC620B
:100AF0005A463D3E494949007E0101017E2A2A2A83
:100B00002A2A44445F444440514A444040444A51A4
:100B1000400000FF0103E080FF000008086B6B0845
:100B20003612362436060F090F060000181800008A
:100B3000001010003040FF0101001F01011E0019CC
:100B40001D1712003C3C3C3C00000000007FBFDF52
:100B5000EFF7FBFDFE804020100804020104E010C6
:100B6000021C07123732292D29252B3900010310C9
:100B7000E110031D07062E2C292D2E2E373F0000D5
:100B8000021013800A298064022A040000007F2BCF
:100B9000040000007F0F0180961180FFB103012C3B
:100BA0002DB203012C2DB306012C2D012C2DB401E7
:100BB00007C003A20284C101C5C2020A00C3028A9F
:100BC0002AC4028AEEC5010E20003601C83A01058A
:100BD000000000002300260029000000000024007F
:100BE00027002A000000000800020100000304079B
:100BF00000000000000000000103680020007E00EB
:100C00001201020408102040800102040810200193
:100C1000020408102000000000250028002B00041A
:100C20000404040404040402020202020203030393
:100C30000303030086237D2E11241FBECFEFD8E0CF
:100C4000DEBFCDBF13E0A0E0B1E0E2EDF4E602C00C
:100C500005900D92A43CB107D9F726E0A4ECB3E0CF
:100C600001C01D92A230B207E1F716E0CBE1D6E059
:100C700004C02197FE010E942531CA31D107C9F76E
:100C80000E943E250C945C320C940000833081F06D
:100C900028F4813099F08230A9F008958730A9F0C6
:100CA0008830C9F08430B1F4809180008F7D03C01A
:100CB000809180008F7780938000089584B58F772E
:100CC00084BD089584B58F7DFBCF8091B0008F7770
:100CD0008093B00008958091B0008F7DF9CF1F936D
:100CE000CF93DF93282F30E0F901EC51F44F84913A
:100CF000F901EF5FF34FD491F901E15EF34FC49135
:100D0000CC23A9F0162F81110E944606EC2FF0E0AB
:100D1000EE0FFF1FEB5EF34FA591B4918FB7F894E0
:100D2000EC91111108C0D095DE23DC938FBFDF91C9
:100D3000CF911F910895DE2BF8CFCF93DF9390E0F2
:100D4000FC01EF5FF34F2491815E934FFC0184918E
:100D50008823C9F090E0880F991FFC01E652F44FF8
:100D6000A591B491FC01EB5EF34FC591D491611153
:100D70000DC09FB7F8948C91209582238C93888125
:100D8000282328839FBFDF91CF910895623051F4CB
:100D90009FB7F8943C91822F809583238C93E881B0
:100DA0002E2BEFCF8FB7F894EC912E2B2C938FBF77
:100DB000EACF3FB7F8948091390490913A04A0911A
:100DC0003B04B0913C0426B5A89B05C02F3F19F009
:100DD0000196A11DB11D3FBFBA2FA92F982F8827BB
:100DE000BC01CD01620F711D811D911D42E0660F96
:100DF000771F881F991F4A95D1F708958F929F9268
:100E0000AF92BF92CF92DF92EF92FF926B017C0183
:100E10000E94D9064B015C01C114D104E104F10424
:100E2000B9F00E94D906681979098A099B09683EB8
:100E300073408105910580F321E0C21AD108E108D1
:100E4000F10888EE880E83E0981EA11CB11CE4CF47
:100E5000FF90EF90DF90CF90BF90AF909F908F90DA
:100E6000089508950895AF92BF92CF92DF92EF92C6
:100E7000FF920F931F93CF93DF936C017B018B0144
:100E8000040F151FEB015E01AE18BF08C017D10794
:100E900059F06991D601ED91FC910190F081E02D1E
:100EA000C6010995892B79F7C501DF91CF911F9173
:100EB0000F91FF90EF90DF90CF90BF90AF9008958B
:100EC000FC01538D448D252F30E0842F90E0821B50
:100ED000930B541710F0CF96089501970895FC01D5
:100EE000918D828D981761F0A28DAE0FBF2FB11D2D
:100EF0005D968C91928D9F5F9F73928F90E0089585
:100F00008FEF9FEF0895FC01918D828D981731F03E
:100F1000828DE80FF11D858D90E008958FEF9FEF92
:100F20000895FC01918D228D892F90E0805C9F4F68
:100F3000821B91098F739927089585EA94E00E9496
:100F4000910721E0892B09F420E0822F089580E0A9
:100F500090E0892B29F00E949D0781110C940000DC
:100F60000895FC01A48DA80FB92FB11DA35ABF4F3E
:100F70002C91848D90E001968F739927848FA68998
:100F8000B7892C93A089B1898C91837080648C93EC
:100F9000938D848D981306C00288F389E02D80819B
:100FA0008F7D80830895EF92FF920F931F93CF93CD
:100FB000DF93EC0181E0888F9B8D8C8D98131AC094
:100FC000E889F989808185FF15C09FB7F894EE897B
:100FD000FF896083E889F9898081837080648083D8
:100FE0009FBF81E090E0DF91CF911F910F91FF9023
:100FF000EF900895F62E0B8D10E00F5F1F4F0F73CB
:101000001127E02E8C8D8E110CC00FB607FCFACF85
:10101000E889F989808185FFF5CFCE010E94B1076B
:10102000F1CFEB8DEC0FFD2FF11DE35AFF4FF08256
:101030009FB7F8940B8FEA89FB8980818062CFCFBC
:10104000CF93DF93EC01888D8823B9F0AA89BB89FF
:10105000E889F9898C9185FD03C0808186FD0DC0EA
:101060000FB607FCF7CF8C9185FFF2CF808185FF0B
:10107000EDCFCE010E94B107E9CFDF91CF91089566
:10108000FC01A5A1B6A18C9192A589238C93A5A161
:10109000B6A18C9191A5892B8C930895DC01939630
:1010A000ED91FC919497908198968C9189238083FF
:1010B0000895DC019396ED91FC9194979081979619
:1010C0008C91892B80830895DC019196ED91FC91A0
:1010D0009297908196968C91892380830895DC0164
:1010E0009196ED91FC919297908195968C91892B98
:1010F00080830895CF92DF92EF92FF921F93CF9358
:10110000DF93EC016A017B018DA9811123C08F2D32
:101110009927AA27BB278EBD0DB407FEFDCFC701B7
:10112000AA27BB278EBD0DB407FEFDCFBB27AF2D71
:101130009E2D8D2D8EBD0DB407FEFDCFCEBC0DB402
:1011400007FEFDCFDF91CF911F91FF90EF90DF90D1
:10115000CF9008958130B1F410E2CE01F7FE0FC0B8
:101160000E946F08CE010E945908CE010E944E08CD
:10117000CC0CDD1CEE1CFF1C115079F7E3CF0E9454
:101180006408F0CFEF8DF8A18F2D9927AA27BB27F0
:101190008083CE010E944008EF8DF8A1C701AA27E5
:1011A000BB278083CE010E944008EF8DF8A1BB27AA
:1011B000AF2D9E2D8D2D8083CE010E944008EF8D96
:1011C000F8A1C082CE01DF91CF911F91FF90EF90E7
:1011D000DF90CF900C944008FF920F931F93CF9312
:1011E000DF93EC018B018DA981110EC01EBD0DB4E2
:1011F00007FEFDCF0EBD0DB407FEFDCFDF91CF91F1
:101200001F910F91FF9008958130B1F490E1F92E74
:10121000CE0117FF0EC00E946F08CE010E94590830
:10122000CE010E944E08000F111FFA94F110F0CF6A
:10123000E5CF0E946408F1CFEF8DF8A11083CE01B5
:101240000E944008EF8DF8A10083CE01DF91CF917D
:101250001F910F91FF900C9440080F931F93CF9311
:10126000DF93EC01162F8DA9811109C06EBD0DB45D
:1012700007FEFDCFDF91CF911F910F91089581302F
:1012800099F408E0CE0117FF0CC00E946F08CE0150
:101290000E945908110FCE010E944E08015091F78B
:1012A000E9CF0E946408F3CFEF8DF8A16083CE01EF
:1012B000DF91CF911F910F910C944008CF93DF9352
:1012C000EC01ED8DFE8D80819CA989238083CE0168
:1012D0000E942D09ED8DFE8D80819BA9892B808335
:1012E000DF91CF9108958F929F92AF92BF92CF924C
:1012F000DF92EF92FF920F931F93CF93DF93EC0156
:1013000089AD9AAD680F791F8BAD9CAD480F591F01
:1013100021503109260F371F4901B12CA12CCB01D7
:10132000B0E0A0E0DC0199278827882A992AAA2A18
:10133000BB2A680181E0C81AD108C40ED51EF12C61
:10134000E12C70E060E0BA0155274427C42AD52A71
:10135000E62AF72A6AE2CE010E945E09B501A401DD
:10136000CE010E947A086BE2CE010E945E09B701AD
:10137000A601CE010E947A086CE2CE01DF91CF91E6
:101380001F910F91FF90EF90DF90CF90BF90AF90A3
:101390009F908F900C945E09FC0185A9811104C077
:1013A00091A182A19CBD8DBD08951F93CF93DF9322
:1013B000EC01162FE881F9810284F385E02D09956F
:1013C000112371F06DADCE010E945E09E881F981B3
:1013D0000688F789E02DCE01DF91CF911F91099406
:1013E0006EADF1CFAF92BF92CF92DF92EF92FF92AC
:1013F0000F931F93CF93DF93EC0177FD38C088855F
:101400009985681779079CF557FD31C08A859B85BA
:101410004817590764F569017A015B01E881F98190
:101420000284F385E02DCE010995E881F98102A4BB
:10143000F3A5E02D01E010E021E030E0A701B501C7
:10144000CE010995B601CE010E94EC08E881F98130
:101450000688F789E02DCE01DF91CF911F910F9182
:10146000FF90EF90DF90CF90BF90AF900994DF9105
:10147000CF911F910F91FF90EF90DF90CF90BF9091
:10148000AF9008958F929F92AF92BF92CF92DF92CA
:10149000EF92FF920F931F93CF93DF93EC014901DB
:1014A0005701E881F98102A4F3A5E02D0995940183
:1014B000D8010E94FC306B017C01C114D104E1040D
:1014C000F10409F47DC08DA9811115C081E0C81A0D
:1014D000D108E108F1088FEFC816D806E806F8062B
:1014E00009F46EC0BEBC0DB407FEFDCFAEBC0DB49A
:1014F00007FEFDCFEBCF813099F581E0C81AD10806
:10150000E108F1088FEFC816D806E806F80609F4D6
:1015100057C00B2D18E0CE0107FF1CC00E946F08BA
:10152000CE010E945908CE010E944E08000F1150B2
:1015300091F70A2D18E0CE0107FF0FC00E946F0837
:10154000CE010E945908CE010E944E08000F115092
:1015500091F7D3CF0E946408E3CF0E946408F0CFD4
:10156000BA1016C0CC0CDD1CEE1CFF1CEF8DF8A1D0
:10157000B08281E0C81AD108E108F1088FEFC816DF
:10158000D806E806F806E1F0CE010E944008F1CF47
:1015900081E0C81AD108E108F1088FEFC816D80613
:1015A000E806F80669F0EF8DF8A1B082CE010E943E
:1015B0004008EF8DF8A1A082CE010E944008E8CF3C
:1015C000DF91CF911F910F91FF90EF90DF90CF901F
:1015D000BF90AF909F908F9008958F929F92AF92FF
:1015E000BF92CF92DF92EF92FF920F931F93CF9310
:1015F000DF934C01EB016A01590137FF07C0C901B4
:101600000196C80FD91FB194A194B108F401A08527
:10161000B185CA17DB070CF058C017FF07C0C80117
:101620000196C80ED91E119501951109F401828504
:101630009385C816D9060CF048C0FE01EA0DFB1DC3
:10164000AF014150510957FD40C0B601600F711FF5
:101650009B012150310937FD38C0D7FF03C05F011E
:10166000D0E0C0E0D7FE03C08B01D12CC12C4A17BB
:101670005B071CF05D01AC1ABD0A281739071CF086
:101680008C010C191D09D401ED91FC910284F385A4
:10169000E02DC40109959501A601BE01C4010E9477
:1016A000420AD401ED91FC910688F789E02DC4012E
:1016B000DF91CF911F910F91FF90EF90DF90CF902E
:1016C000BF90AF909F908F900994DF91CF911F9121
:1016D0000F91FF90EF90DF90CF90BF90AF909F90D1
:1016E0008F900895EF92FF920F931F93211531056C
:1016F00029F00115110511F00E94ED0A1F910F91BB
:10170000FF90EF9008958F929F92AF92BF92CF92E9
:10171000DF92EF92FF920F931F93CF93DF935C01C1
:101720004B016A01E90177FD52C0DC0118968D91E9
:101730009C91681779070CF04AC0209709F447C0BC
:1017400037FF07C0C9010196C80ED91ED195C195B2
:10175000D109F50182859385C816D906C4F5A6017D
:101760004C0F5D1F9A012150310937FD30C0D7FE63
:1017700003C0EA01D12CC12C281739071CF0EC0159
:10178000CC19DD09D501ED91FC910284F385E02DA2
:10179000C501099578018E0121E030E0A601B40170
:1017A000C5010E94420AD501ED91FC910688F78996
:1017B000E02DC501DF91CF911F910F91FF90EF9028
:1017C000DF90CF90BF90AF909F908F900994DF9162
:1017D000CF911F910F91FF90EF90DF90CF90BF902E
:1017E000AF909F908F9008958F929F92AF92BF92EB
:1017F000CF92DF92EF92FF920F931F93CF93DF93DD
:101800005C016B014A01E90157FD52C0DC011A96E7
:101810008D919C91481759070CF04AC0209709F404
:1018200047C037FF07C0C9010196C80ED91ED19520
:10183000C195D109F50180859185C816D906C4F5F1
:10184000A6014C0F5D1F9A012150310937FD30C0B0
:10185000D7FE03C0EA01D12CC12C281739071CF090
:10186000EC01CC19DD09D501ED91FC910284F385E1
:10187000E02DC5010995780101E010E09E01A40169
:10188000B601C5010E94420AD501ED91FC9106887E
:10189000F789E02DC501DF91CF911F910F91FF9046
:1018A000EF90DF90CF90BF90AF909F908F90099472
:1018B000DF91CF911F910F91FF90EF90DF90CF902C
:1018C000BF90AF909F908F900895EF92FF920F93EB
:1018D0001F93CF93DF9377FD32C0DC011896ED9113
:1018E000FC916E177F075CF52115310541F137FF3B
:1018F00007C0F90131964E0F5F1F319521953109CF
:10190000DC011A96ED91FC914E175F07C4F4EA01D1
:10191000C20FD31FDE011197B7FD11C057FF03C0DF
:101920009E0150E040E0AE17BF071CF09F01241B52
:10193000350B7801890121E030E00E94420ADF91F5
:10194000CF911F910F91FF90EF900895EF92FF922A
:101950000F931F93CF93DF9357FD31C0DC011A968D
:10196000ED91FC914E175F0754F52115310539F1C2
:1019700037FF07C0F90131966E0F7F1F3195219512
:101980003109DC011896ED91FC916E177F07BCF4CC
:10199000EB01C20FD31FDE011197B7FD10C077FF17
:1019A00003C09E0170E060E0AE17BF071CF09F010E
:1019B000261B370B780101E010E00E94420ADF91FC
:1019C000CF911F910F91FF90EF9008958F929F926A
:1019D000AF92BF92CF92DF92EF92FF920F931F933D
:1019E000CF93DF9347012115310509F44BC0011551
:1019F000110509F447C037FF07C0F90131966E0F92
:101A00007F1F319521953109DC011896AD90BC906E
:101A10006A157B05BCF517FF07C0F80131964E0F1C
:101A20005F1F119501951109DC011A96ED91FC914A
:101A30004E175F073CF56B01C20ED31EE6012197DE
:101A4000D7FD20C07A01E00EF11ED7011197B7FD36
:101A500019C077FF03C0960170E060E057FF03C034
:101A6000870150E040E0CA15DB051CF09501261BFC
:101A7000370BAE17BF071CF08F01041B150B740149
:101A80000E94420ADF91CF911F910F91FF90EF903A
:101A9000DF90CF90BF90AF909F908F900895EF927E
:101AA000FF920F931F93CF93DF93EC0177FD22C03A
:101AB0008885998568177907ECF457FD1BC08A85DE
:101AC0009B8548175907B4F47901E881F98102A48C
:101AD000F3A5E02D01E010E021E030E0CE01099512
:101AE000B701CE01DF91CF911F910F91FF90EF9041
:101AF0000C94EC08DF91CF911F910F91FF90EF9024
:101B00000895CF93DF93EC010E94CC098FA987FD44
:101B100006C0EB8DFC8D80819AA989238083DF919B
:101B2000CF9108950895AF92BF92CF92DF92EF9236
:101B3000FF920F931F93CF93DF93BC016F5F7F4F93
:101B4000FC011491115008F47AC0FB01D4917B017F
:101B5000F2E0EF0EF11CFB0131960491C02FCF771C
:101B600087EB95E00E94CC098091EE0587FD09C0C6
:101B7000E091D205F091D30580819091E905892308
:101B80008083E091D405F091D50580819091EB059B
:101B9000892380836D2F87EB95E00E942D09E091CA
:101BA000D405F091D50580819091EA05892B808339
:101BB000F701B12CA12CD0E0AC16BD06F4F4809155
:101BC000EC056F01823081F48091E705882361F094
:101BD000619171916F0187EB95E00E94EC08EFEF46
:101BE000AE1ABE0AF601E8CF8FEFC81AD80A649180
:101BF00087EB95E00E942D09F2CF8091EE0587FDDD
:101C000009C0E091D205F091D30580819091E8055B
:101C1000892B8083B7016C0F7D1F07FF93CFEB01EA
:101C20002196FB01649170E06F3F710511F464EF40
:101C300071E090E080E00E94FE06BE0183CFDF915C
:101C4000CF911F910F91FF90EF90DF90CF90BF90B9
:101C5000AF9008950F931F93CF93DF93EC018B0107
:101C60000E94CC098FA987FD06C0EB8DFC8D808179
:101C70009AA989238083ED8DFE8D80819CA989237B
:101C8000808366E3CE010E942D09ED8DFE8D80815B
:101C90009BA9892B80838DA9F801823091F0608106
:101CA000CE010E942D098FA987FD06C0EB8DFC8D0A
:101CB000808199A9892B8083DF91CF911F910F910A
:101CC000089588A9882359F360817181CE010E940B
:101CD000EC08E9CFCF93DF931F92CDB7DEB7FC01BD
:101CE00019826370668BDC01AD5BBF4F2C9130E0D5
:101CF00011968C9190E0623031F06330C9F0613020
:101D000081F040EC498332AF21AF94AF83AFBE0185
:101D10006F5F7F4FCF010E942A0E0F90DF91CF910E
:101D2000089540EA498334AF23AF92AF81AFEFCF3C
:101D300040E6F8CFCF93DF931F92CDB7DEB7FC011B
:101D400019826370668BDC01AA5BBF4F8C91982F60
:101D50009B7FAF014C5B5F4F913031F493E0623079
:101D600008F091E0DA019C939F012D5B3F4F6230B8
:101D700009F44CC0633009F45BC0613069F1823012
:101D800021F098EC843009F046C090EC99838130C2
:101D9000D1F480E890E09387828791878087D9018A
:101DA0008C9190E092AF81AFDA018C9190E094AF8A
:101DB00083AFBE016F5F7F4FCF010E942A0E0F904D
:101DC000DF91CF910895843051F580EA90E09387B8
:101DD000828780E590E0E1CF823019F098EA843084
:101DE00071F590EA99838130B1F580E890E09187B0
:101DF000808793878287D9018C9190E094AF83AFDD
:101E0000DA018C9190E092AF81AFD3CF823049F06C
:101E10008430D9F298E09983813009F4BACF8630C2
:101E2000A1F280EA90E09387828780E890E0B5CFC6
:101E3000823019F098E6843011F490E6D3CF99837C
:101E4000813099F2863051F480EA90E09187808762
:101E500080E590E0CECF8430B9F3F4CF80EA90E013
:101E60009187808780E890E0C4CFFC0187A987FD37
:101E700006C0A38DB48D9C9181A9892B8C93089564
:101E80007F928F929F92AF92BF92CF92DF92EF920A
:101E9000FF920F931F93CF93DF93D82F762E872E29
:101EA000C42F922EB02EA12E87EB95E00E94810DBB
:101EB000092D10E02C2F30E04D2F50E070E060E055
:101EC00087EB95E00E947309C72CD82CC99DE001CF
:101ED000112483E0D595C7958A95E1F7CC0DDD1DDA
:101EE000CC15DD0509F44CC0F60111916F01B70165
:101EF00017FF02C06B2D7A2D87EB95E00E94EC084E
:101F0000B70116FF02C06B2D7A2D87EB95E00E947A
:101F1000EC08B70115FF02C06B2D7A2D87EB95E019
:101F20000E94EC08B70114FF02C06B2D7A2D87EBDD
:101F300095E00E94EC08B70113FF02C06B2D7A2DCB
:101F400087EB95E00E94EC08B70112FF02C06B2DF1
:101F50007A2D87EB95E00E94EC08B70111FF02C0D3
:101F60006B2D7A2D87EB95E00E94EC08B70110FFEE
:101F700002C06B2D7A2D87EB95E00E94EC08B0CF64
:101F800087EB95E0DF91CF911F910F91FF90EF903C
:101F9000DF90CF90BF90AF909F908F907F900C94E8
:101FA000350F0F931F93CF93DF93DC011496ED91C0
:101FB000FC91EF012796D7FD2796F3E0D595C795BD
:101FC000FA95E1F7DB0177FD1796E3E0B595A79564
:101FD000EA95E1F7C49FF001C59FF00DD49FF00D85
:101FE0001124AE0FBF1FFC01838D948DA80FB91F64
:101FF00067707727012B81F06B5A744FFB01649156
:1020000090E080E082179307BCF44C91462B4C93F0
:10201000AC0FBD1F0196F6CF635B744FFB0164915B
:1020200090E080E0821793073CF44C9146234C9358
:10203000AC0FBD1F0196F6CFDF91CF911F910F918D
:1020400008950F931F93CF93DF93FC01A38DB48D5D
:10205000109709F446C077FD44C057FD42C0808503
:102060009185681779070CF03CC0828593854817E5
:102070005907BCF5C481D58186898230B9F1833096
:1020800009F442C0813031F4CE010197841B950BD5
:10209000AB01BC01CE01079697FD0796E3E095954D
:1020A0008795EA95E1F7849FF001859FF00D949F55
:1020B000F00D1124CB0177FD079643E095958795A8
:1020C0004A95E1F78E0F9F1FA80FB91F8C9167707B
:1020D0007727232B09F16B5A744FFB016491682B0E
:1020E0006C93DF91CF911F910F910895CE010197CD
:1020F0008C01061B170BB801868197810197FC01A3
:10210000E41BF50BAF01C6CF868197810197861B33
:10211000970BBA01AC01BECF635B744FFB016491B6
:102120006823DECF0895FC016370668B84819581FE
:1021300026813781613039F0633029F091878087BB
:102140003387228708953187208793878287089570
:102150002F923F924F925F926F927F928F929F92B7
:10216000AF92BF92CF92DF92EF92FF920F931F93A5
:10217000CF93DF93CDB7DEB76A970FB6F894DEBF83
:102180000FBECDBF9A8F898F7A8369834A01D22E81
:1021900018870F833701BC2CDC0159962D913C9197
:1021A0005A972115310509F015C118968D919C910A
:1021B0001997681779070CF0D7C11A968D919C91E1
:1021C000481759070CF0D0C14C2C512CB6E0CB9ECF
:1021D000600D711D11247C876B87161617060CF095
:1021E000C3C1EA2DF0E0FA87E98793E0EE0FFF1F05
:1021F0009A95E1F7F88BEF87CF01840F951F18169A
:1022000019060CF0B1C1A98DBA8D58968C91811127
:1022100004C0BFEABD1508F4D394A98DBA8DED9121
:10222000FC9111970284F385E02DCD010995B5E06D
:10223000DB9EC0011124E981FA81FC83EB83312C00
:10224000212C9C01235B394F388F2F8B4A2D50E076
:102250005E8B4D8BEF89F88DE20DF31D44919E82CC
:102260008D82D12CC12C69817A81620D731D7A8B8C
:10227000698B842F90E09C8B8B8BE98DFA8DA081EC
:10228000B18140FF82C0F1E0BF126FC0AF126DC0DC
:102290001C96ED91FC912F813885A4014C0D5D1D9C
:1022A00069897A89898D9A8D0995EB89FC89F595DB
:1022B000E7954E2F5FEFC51AD50A6D817E818D8916
:1022C0009E89680F791F7E836D8398E0C916D104BB
:1022D00081F6AFEF2A1A3A0AEB81FC81E40DF51D75
:1022E000FC83EB83F5E02F16310409F0B3CF2F8187
:1022F000388526153705B9F0A98DBA8DED91FC9179
:10230000B1E0BB1257C0AB1255C069817A816B5FD7
:102310007F4F0088F189E02D830128E030E0A4019F
:10232000898D9A8D0995A98DBA8DED91FC911197A2
:102330000688F789E02DCD016A960FB6F894DEBFC6
:102340000FBECDBFDF91CF911F910F91FF90EF9006
:10235000DF90CF90BF90AF909F908F907F906F90C5
:102360005F904F903F902F9009941E96ED91FC91B5
:10237000EF80F88409851A8592014D815E816B8119
:102380007C81898D9A8D099590CF2F81388526156E
:10239000370509F48ACF31E0B31207C0A31205C094
:1023A0001C96ED91FC91930178CF1E96ED91FC91D6
:1023B0007301E0CF6B857C85641975090684F78508
:1023C000E02D73010F8518899201A401898D9A8DE2
:1023D0000995A9CFF901349694913297459154917A
:1023E000D91AB7E0DB9E400D511D1124F90125914A
:1023F00034913C8B2B8BFA0125903490FA01329664
:10240000749031963491398B329664903196449021
:1024100041E04C1518F04A1508F07FC0662D062CD7
:10242000000C770B7C836B83842D042C000C990BA0
:102430009E838D83A98DBA8DED91FC9111970284B5
:10244000F385E02DCD010995512CD12CC12CEA2D1D
:10245000F0E0FA87E9872B2D30E03C872B87A40139
:10246000440D511D47FC5A95588F4F8B69817A81D5
:10247000660D711D67FC7A957E876D877989C71611
:1024800008F051CF2C2D30E04D815E81420F531F5B
:10249000A985BA854A9FC0014B9F900D5A9F900D08
:1024A0001124FC01E80DF91DF88BEF87852D612CB7
:1024B0004F89588D420F531F5E8B4D8B671408F068
:1024C00050C044244394480E877041F4C1010196E2
:1024D000EB89FC89E20DF31DD4901C01D7FE19C0D5
:1024E000A98DBA8DED91FC91662D70E0B1E0BB1223
:1024F00019C0AB1217C02D853E85620F731F04846F
:10250000F585E02D2F8138854D895E89898D9A8DDD
:102510000995DD0C6394842DD1CF1E821D821C820F
:102520001B8288CF4B815C81640F751FAB85BC8596
:102530006A9FC0016B9F900D7A9F900D1124698155
:102540007A81680F791F0684F785E02DEF80F88483
:1025500009851A859D014F855889898D9A8D099520
:10256000D8CF570CC3948ACF6A960FB6F894DEBFC3
:102570000FBECDBFDF91CF911F910F91FF90EF90D4
:10258000DF90CF90BF90AF909F908F907F906F9093
:102590005F904F903F902F9008958F929F92AF92AF
:1025A000CF92EF92FF920F931F93CF93DF93EC01A3
:1025B000262F898D9A8D009709F051C06A30D1F489
:1025C0001D861C868D8948E0849F900111248E858C
:1025D0009F85820F931F9F878E8781E090E0DF9118
:1025E000CF911F910F91FF90EF90CF90AF909F9060
:1025F0008F9008956D3089F3CC88AD888F898823BA
:10260000C1F08C859D8536E0C39E800D911D1124FF
:10261000488559854817590764F44E855F851D869E
:102620001C8638E0A39EC0011124840F951F9F874C
:102630008E87EA88FB88088919894E855F856C85B5
:102640007D85CE010E94A8102C898C859D8546E051
:10265000249F800D911D11249D878C87BECF6A30E9
:1026600069F41D861C86FC013896E4912D898E85BF
:102670009F85E29F800D911D1124ADCF6D3009F42F
:10268000ACCFFC0134963491631708F4A6CF329690
:10269000E491E61708F4A1CFFC013296859094905E
:1026A000462F431B342F47E0349F800C911C11248C
:1026B000F401329634913196E4913323A9F1EE235B
:1026C00099F1CC88F4013596E491AD884F89442383
:1026D00001F10E2E000CFF0BE30FF11DCE9EA001A9
:1026E000CF9E500D11246C857D85460F571F688540
:1026F0007985641775076CF44E855F851D861C8689
:10270000FC013896E491AE9E400D511D11245F8767
:102710004E87EA88FB88088919894E855F856C8514
:102720007D85CE010E94A810F4013496E4912C8995
:102730008C859D85E29F800D911D11248DCF682F82
:102740008FE495E00C94CD126F927F928F929F92BE
:10275000AF92BF92CF92DF92EF92FF920F931F93AF
:10276000CF93DF93EC016B015A0139014801E881F5
:10277000F9810284F385E02D0995E881F9810288C9
:10278000F389E02D87019301A501B601CE010995DA
:10279000A501480D591D41505109E881F981028870
:1027A000F389E02D9301B601CE010995E881F98105
:1027B0000088F189E02D9401A501B601CE010995AB
:1027C000C60CD71CB60161507109E881F9810088F7
:1027D000F189E02D9401A501CE010995E881F981E7
:1027E0000688F789E02DCE01DF91CF911F910F91DF
:1027F000FF90EF90DF90CF90BF90AF909F908F9021
:102800007F906F9009946F927F928F929F92AF9278
:10281000BF92CF92DF92EF92FF920F931F93CF93CD
:10282000DF935C01EB016A01490138018701DC019A
:10283000ED91FC916217730719F5641675062CF07B
:10284000962D872D3A01C92ED82E960126193709C3
:102850002F5F3F4F048CF58DE02DA301BE01C50114
:102860000995DF91CF911F910F91FF90EF90DF902D
:10287000CF90BF90AF909F908F907F906F90089572
:102880004615570591F42617370724F0892D4B017B
:10289000C22FD82F9E01281939092F5F3F4F068C70
:1028A000F78DE02DA601B401DACF0284F385E02D87
:1028B0000995D501ED91FC910488F589E02D8301FE
:1028C0009401A601BE01C5010995D501ED91FC91C8
:1028D0000688F789E02DC501DF91CF911F910F91F7
:1028E000FF90EF90DF90CF90BF90AF909F908F9030
:1028F0007F906F900994EF92FF920F931F93DC01EA
:102900001A960D911C911B9718962D913C91199731
:10291000ED91FC9100A0F1A1E02D7B0150E040E0A1
:1029200070E060E009951F910F91FF90EF9008957E
:102930004F925F926F927F928F929F92AF92BF92CF
:10294000CF92DF92EF92FF920F931F93CF93DF937B
:102950006C012B015A0139014801DC01ED91FC9118
:102960000284F385E02D0995E201640C751CD60103
:10297000ED91FC91C615D7055CF40088F189E02D36
:1029800087019401A501BE01C60109952196EFCFEB
:102990000688F789E02DC601DF91CF911F910F9135
:1029A000FF90EF90DF90CF90BF90AF909F908F906F
:1029B0007F906F905F904F9009948F929F92AF920B
:1029C000BF92CF92DF92EF92FF920F931F93CF931C
:1029D000DF93EC015B014A016901E881F98102841E
:1029E000F385E02D099595012C0D3D1D21503109F0
:1029F000E881F9810488F589E02D78018401A4013A
:102A0000B501CE010995E881F9810688F789E02DA5
:102A1000CE01DF91CF911F910F91FF90EF90DF904A
:102A2000CF90BF90AF909F908F9009948F929F927C
:102A3000AF92BF92CF92DF92EF92FF920F931F93CC
:102A4000CF93DF93EC015B014A0169017801E881D2
:102A5000F9810284F385E02D0995C80CD91C860103
:102A600001501109E881F9810488F589E02D95016B
:102A7000A401B501CE010995E881F9810688F7899D
:102A8000E02DCE01DF91CF911F910F91FF90EF903C
:102A9000DF90CF90BF90AF909F908F900994089552
:102AA000EF92FF920F931F93DC01ED91FC9100A038
:102AB000F1A1E02D09951F910F91FF90EF900895DE
:102AC0000F931F93DC01ED91FC91068CF78DE02DA7
:102AD00009951F910F9108950F931F93DC01ED91BC
:102AE000FC91048CF58DE02D09951F910F910895AF
:102AF000DC01ED91FC910084F185E02D09942F9289
:102B00003F924F925F926F927F928F929F92AF927D
:102B1000BF92CF92DF92EF92FF920F931F93CF93CA
:102B2000DF9300D000D000D0CDB7DEB73C016A0102
:102B30003E832D83FC82EB825801A41AB50AB7FEAE
:102B400003C0B194A194B1088D809E80861A970A23
:102B500097FE03C09194819491088A149B045CF0C1
:102B6000902F812F0D811E819D838E839C2D8D2D15
:102B70006B01692F782F0C151D055CF09D818E81EE
:102B80007E836D83692F782F902F812F8601C92E28
:102B9000D82E1601201A310A2B012D813E81421AAE
:102BA000530A57FE03C0519441945108710137FEF6
:102BB00003C03FEFE31AF30AF594E7948D819E81F9
:102BC000861797075CF5A1E0B0E0BA83A983C01629
:102BD000D1064CF1D301ED91FC910484F585E02DF3
:102BE0002B813C81A8016D817E818A149B041CF09D
:102BF0004D815E81B801C3010995E418F508F7FE1F
:102C00000AC02D813E8189819A81280F391F3E8318
:102C10002D83E20CF31C0F5F1F4FD9CF2FEF3FEF37
:102C20003A832983D4CF26960FB6F894DEBF0FBE21
:102C3000CDBFDF91CF911F910F91FF90EF90DF906B
:102C4000CF90BF90AF909F908F907F906F905F904C
:102C50004F903F902F900895089520910504260FDE
:102C60003327331F21323105ECF420916304FC013A
:102C700090E080E0243069F082E00895A09105049E
:102C80002191AC014B515C4FA40FB52FB11D2C937A
:102C90000196861798F380910504680F60930504E8
:102CA00080E0089581E008951092630481E08093AC
:102CB000620410923D0461E082E10E946F0661E0CF
:102CC00083E10E946F06E9EBF0E080818E7F8083D4
:102CD00080818D7F808388E48093B80085E4809331
:102CE000BC000895CF93DF9391E09093E403882391
:102CF000B9F0C091B800D091BA008091BC008A7B35
:102D00008093BC0060E082E10E946F0660E083E196
:102D10000E946F060E945416D093BA00C093B80068
:102D2000DF91CF910895CF92DF92EF92FF920F93B0
:102D30001F93CF93DF93C62FA0918D04B0918E0483
:102D400090918F0421E020938C0490938B04109237
:102D50008A0410928904ED91FC9111970190F08101
:102D6000E02D682FCD01099580918D0490918E04FE
:102D7000DC01ED91FC910190F081E02D6C2F099523
:102D8000D0918904D13208F094C0C0918B040E9484
:102D9000D9066B017C0180916304811165C082E0DA
:102DA0008093630481E0809362048FEF80936104D9
:102DB00010926004D0935F04A9E6B4E0EFE3F4E07E
:102DC00080E0D81385C010923E0480913E04CC0F61
:102DD000C82BC0933E0480913D04813009F07CC033
:102DE00010923D040E94D9066B017C0180913E0443
:102DF0008093BB008091650490916604A091670464
:102E0000B0916804892B8A2B8B2B99F00E94D906EC
:102E10000091650410916604209167043091680464
:102E20006C197D098E099F090617170728073907AE
:102E3000E0F18091BC0083FDD9CF85EC8093BC008C
:102E40000E94D9066B017C0180916304823009F4F1
:102E500045C0809161048F3F61F1809161048032AF
:102E600041F18091610425C08091650490916604D0
:102E7000A0916704B0916804892B8A2B8B2B09F4ED
:102E80008ACF0E94D90600916504109166042091B2
:102E90006704309168046C197D098E099F09061733
:102EA00017072807390708F076CF809164040E943D
:102EB000721610928A041092890410928C04DF9189
:102EC000CF911F910F91FF90EF90DF90CF900895D9
:102ED0009D9191938F5F75CF85EEB0CF8091650402
:102EE00090916604A0916704B0916804892B8A2BA5
:102EF0008B2B09F4A9CF0E94D9060091650410918B
:102F0000660420916704309168046C197D098E096C
:102F10009F09061717072807390708F095CFC5CF6F
:102F2000E82F80E1EE2321F082E1E13009F481E134
:102F3000F0E0E357FB4F60870C949316E0912E046A
:102F400080912D04E81730F4F0E0EC53FC4F8081C1
:102F500090E008958FEF9FEF089590912E04809157
:102F60002D042FEF3FEF981748F4E92FF0E0EC53D2
:102F7000FC4F208130E09F5F90932E04C90108959B
:102F800080912D0490912E04891B990B0895CF9266
:102F9000DF92EF92FF920F931F93CF93DF937C0109
:102FA000CB018A0120918C04222389F0EB016B0173
:102FB000C40ED51ECC15DD0569F06991D701ED91E0
:102FC000FC910190F081E02DC7010995F3CF642FAA
:102FD0000E942D16C801DF91CF911F910F91FF9094
:102FE000EF90DF90CF900895CF93DF931F92CDB7EE
:102FF000DEB7698320918C042223F9F020918904A3
:10300000203258F021E030E0FC013383228390E04D
:1030100080E00F90DF91CF91089580918A04E82F8E
:10302000F0E0E759FB4F998190838F5F80938A048A
:103030008093890481E090E0ECCF61E0CE010196BD
:103040000E942D16F7CF90E080E008950F931F9314
:10305000CF93DF93EC01288130E0F901EC51F44F7C
:103060008491F901EF5FF34F0491F901E15EF34FB1
:103070001491112379F181110E944606E12FF0E0AD
:10308000EE0FFF1FE053F44FA591B491EC910E2386
:1030900031E020E009F430E0832F922F49855A85F2
:1030A0006B857C85452B462B472BB9F4892B79F40E
:1030B0002FB7F8948091350490913604A09137048D
:1030C000B09138042FBF89879A87AB87BC8780E08F
:1030D00090E031C090E080E0E1CF0197C1F78FB779
:1030E000F894409135045091360460913704709102
:1030F00038048FBF89859A85AB85BC85481B590BE1
:103100006A0B7B0B19861A861B861C868D819E8115
:10311000AF81B88584179507A607B70788F081E0C7
:1031200090E009811A812B813C810417150726073D
:10313000370708F080E0DF91CF911F910F9108953C
:1031400082E0C6CFCF93DF93EC0162E088810E94DA
:103150009D0619861A861B861C86DF91CF910895DD
:10316000CF92DF92EF92FF920F931F93CF93DF9353
:10317000FC01A481B581FD013796F7FD3796A3E0E8
:10318000F595E795AA95E1F7E49FE001E59FD00D5D
:10319000F49FD00D1124AB0177FF02C0495F5F4F50
:1031A000E3E055954795EA95E1F74C0F5D1FFC016B
:1031B000C38DD48DC40FD51F79019B012770332790
:1031C000232BD1F0677020E0E114F10471F0E62FB9
:1031D000062E000CFF0BEB5AF44FE4912E2BF1E07E
:1031E000EF1AF1086F5F683079F738810115110522
:1031F000C9F1232B28832196E114F10451F16701D1
:1032000083E0D694C7948A95E1F787E0E822FF240B
:1032100061E00115110509F460E0619570E0A60117
:10322000CE010E945532E114F10499F0E5E5FBE08E
:1032300097012B5A344F80E09491892B31962E17A9
:103240003F07D1F7CC0DDD1D9881012B71F0892B43
:103250008883DF91CF911F910F91FF90EF90DF90C6
:10326000CF90089520952323C5CF80958923F0CF53
:103270000F931F93CF93DF93FB01BA0137FF0AC06F
:10328000A90140955095E41BF50BF7FD34C031952D
:103290002195310977FD2AC0DC011A964D915C9188
:1032A0001B976417750714F518964D915C91E417F8
:1032B000F507E4F4DF01A20FB31F1A161B06B4F4DE
:1032C000F7FF03C09D01F0E0E0E0DF01A20FB31FB4
:1032D000A417B5071CF09A012E1B3F0BEC014E8979
:1032E000411110C0AB01BF010E94B018DF91CF9116
:1032F0001F910F910895AF01421B530B9A01F0E00B
:10330000E0E0C8CF413061F44C815D81415051090A
:10331000EA01C61BD70BBE01AF010E94D10FE6CF59
:10332000423071F4AC81BD814E815F8141505109C1
:10333000461B570BBD01621B730B6E1B7F0BD4CF5B
:103340004330A1F64E815F81421B530B4E1B5F0B36
:10335000E4CF0F931F93FA0137FF0AC0A9014095EC
:103360005095E41BF50BF7FD33C0319521953109DC
:1033700077FD2BC0DC0118964D915C91199764176D
:1033800075071CF51A964D915C91E417F507ECF45E
:10339000DF01A20FB31F1A161B06BCF4F7FF03C010
:1033A0009D01F0E0E0E0DF01A20FB31F4A175B07C9
:1033B0001CF49A012E1B3F0BDC0156964C9156973C
:1033C00041110DC0AF010E94D10F1F910F910895BF
:1033D000AF01421B530B9A01F0E0E0E0C9CF41304E
:1033E00071F414964D915C91421B530BDA01AE1BA4
:1033F000BF0BFD01AB01BF010E94B018E6CF423008
:1034000089F416964D915C911797421B530B4E1BF6
:103410005F0B1496ED91FC913197DF01A61BB70B62
:10342000BD01D1CF433089F616964D915C91415044
:103430005109461B570BDFCFFC01838D948D0097FC
:1034400009F1448155819A01295F3F4F37FF02C03E
:10345000295F3F4F43E0359527954A95E1F7068070
:10346000F781E02D2E9FA0012F9F500D3E9F500D04
:103470001124672B21F470E060E00C9455326FEF5B
:1034800070E0FBCF08959F92AF92BF92CF92DF92F0
:10349000EF92FF920F931F93CF93DF935C017B0119
:1034A0008B01D0E0C0E0F80191908F016501CC0E56
:1034B000DD1EC6010E948C2E981621F0692DC601D2
:1034C0000E94942E2196C131D10569F7C701DF9181
:1034D000CF911F910F91FF90EF90DF90CF90BF9011
:1034E000AF909F900895CF92DF92EF92FF920F934B
:1034F0001F93CF93DF93EB017B0121E1E20EF11CDF
:103500008B016C01C61AD70AC601800F911F0E9459
:103510008C2EF80181938F01EE15FF05A9F7CE01DE
:10352000DF91CF911F910F91FF90EF90DF90CF909F
:1035300008950E945032FB0101900020E9F7319775
:10354000AF01461B570BDC01ED91FC910280F3812A
:10355000E02D09948F929F92AF92BF92EF92FF92CB
:103560000F931F93CF93DF93CDB7DEB7A1970FB61D
:10357000F894DEBF0FBECDBF7C01FA01CB0119A2CA
:10358000223008F42AE08E010F5D1F4F822E912C0D
:10359000B12CA12CBF01A50194010E94BB30F901FF
:1035A000CA016A300CF5605DD8016E938D01232B42
:1035B000242B252B79F790E080E0109721F0BD01B6
:1035C000C7010E949B1AA1960FB6F894DEBF0FBEEA
:1035D000CDBFDF91CF911F910F91FF90EF90BF90E2
:1035E000AF909F908F900895695CDECF462F50E09A
:1035F00070E060E02AE00C94AA1ACF93DF93682F62
:1036000085EA94E00E94F61AEC0167E871E085EA29
:1036100094E00E949B1A8C0F9D1FDF91CF9108951B
:10362000CF93DF93D0E0C0E0009731F0BC0185EA92
:1036300094E00E949B1AEC0167E871E085EA94E04F
:103640000E949B1A8C0F9D1FDF91CF9108956115E9
:10365000710511F00C949B1A90E080E008953F9260
:103660004F925F926F927F928F929F92AF92BF9292
:10367000CF92DF92EF92FF920F931F93CF93DF933E
:10368000CDB7DEB72C970FB6F894DEBF0FBECDBF17
:10369000B82E4D835E836F83788709871A872B87BF
:1036A0003C871C2D0D2D9E2C3F2C8110EBC0698575
:1036B0007A858B859C85E7E0660F771F881F991FA9
:1036C000EA95D1F72C2D3D2D4E2D5F2D0E94BB305C
:1036D000CD80DE80EF80F884F7E0CC0CDD1CEE1CA2
:1036E000FF1CFA95D1F7C20ED31EE41EF51EA701EA
:1036F000960132504109510929833A834B835C83F7
:103700002B013C01C12ED02EE92CF32C6AE871E08C
:1037100085EA94E00E94271B2AE04D815E816F813B
:10372000788585EA94E00E94AA1A60E971E085EA4A
:1037300094E00E94271B2AE049855A856B857C8589
:1037400085EA94E00E94AA1A65E971E085EA94E0AE
:103750000E94271B2AE0412F502F692D732D85EAE7
:1037600094E00E94AA1A6AE971E085EA94E00E9456
:10377000271B2AE049815A816B817C8185EA94E08C
:103780000E94AA1A60EA71E085EA94E00E94271B71
:103790002AE0B301A20185EA94E00E94AA1A66EA2F
:1037A00071E085EA94E00E94271B2AE0B701A60198
:1037B00085EA94E00E94AA1A67E871E085EA94E03D
:1037C0000E949B1A99278F2D7E2D6D2D8B2D0E9487
:1037D00093166C2D81E08B0D0E9493166B816370A4
:1037E00082E08B0D882009F459C040E1A49E90012D
:1037F00011242C60622B0E94931629813A814B81FF
:103800005C819927852F742F632F83E08B0D0E9495
:103810009316698184E08B0D0E949316D701C6012F
:103820002CE0B695A795979587952A95D1F7807F37
:10383000682F662985E08B0D0E9493169927872DA6
:10384000762D652D86E08B0D0E949316642D87E002
:103850008B0D2C960FB6F894DEBF0FBECDBFDF9157
:10386000CF911F910F91FF90EF90DF90CF90BF907D
:10387000AF909F908F907F906F905F904F903F9010
:103880000C949316C12CD12C7601C394412C512C4D
:10389000320119821A821B821C8238CFA29440EF17
:1038A000A4226A29A8CF4F925F926F927F928F9243
:1038B000AF92CF92DF92EF92FF920F931F93CF932D
:1038C000DF93EC013901AE2CCB01BA010E94B02F7D
:1038D0006B017C01C301B8010E94B02F9B01AC01B8
:1038E000C701B6010E940F2F6B017C010E94812F3E
:1038F0002B013C010E94B02F9B01AC01C701B60116
:103900000E94A22E20E034E244E759E40E943E30B7
:103910000E94812F8B019C01812C80E4C82E82E4BF
:10392000D82E8FE0E82EF12CB301A201CE010E9427
:103930002F1BDF91CF911F910F91FF90EF90DF90A0
:10394000CF90AF908F907F906F905F904F90089541
:103950002F923F924F925F926F927F928F929F929F
:10396000AF92BF92CF92DF92EF92FF920F931F938D
:10397000CF93DF9300D000D000D0CDB7DEB78983DE
:103980002A013B012C8381111FC18AE12AE22A838B
:10399000C82ED12CE9812E2E312C9A81892F90E0CE
:1039A0009E838D83F101E357FB4FFB83EA83F1E8AC
:1039B0004F16F1ED5F06F0EF6F06F8E07F060CF4AE
:1039C0008DC021E442162AE3520629E662062DE064
:1039D000720624F08CEA91E00E94101B0091900482
:1039E000109191042091920430919304E12CB30141
:1039F000A201E2E0440F551F661F771FEA95D1F739
:103A0000C6010E94531CEA81FB8160856064898144
:103A10000E94901788248394A12CC12CD12C76016C
:103A2000C39400E010E0980144E050E060E070E0F2
:103A30008D819E810E942F1BC10101961C019C81DA
:103A4000911125C089818150823008F5E1E24E163E
:103A5000EDE95E06E4EB6E06E6E07E0684F4F10135
:103A6000EE0FFF1FEE0FFF1FE357FB4F878190857F
:103A7000A185B28581329D49A44BB64044F021E036
:103A8000B301A20183E09981891B0E94A81CF10166
:103A9000EE0FFF1FEE0FFF1FE357FB4F47825086CD
:103AA0006186728626960FB6F894DEBF0FBECDBF34
:103AB000DF91CF911F910F91FF90EF90DF90CF900A
:103AC000BF90AF909F908F907F906F905F904F903E
:103AD0003F902F9008959AE39A835ACF8090900454
:103AE00090909104A0909204B0909304F1E24F164C
:103AF000FDE95F06F4EB6F06F6E07F061CF1A6E039
:103B0000B0E0A30192010E941A31AB01BC01E12C8B
:103B100095018401C6010E94531CEA81FB816085E6
:103B20006F7B89810E949017812CA12CC12CD12CF4
:103B30007601C39400E010E0980146E050E060E0B8
:103B400070E076CFE12C95018401F0E24F16F1EAA6
:103B50005F06F7E06F067104CCF040E059EE64EACE
:103B600075E3C6010E94531CEA81FB8160856F7B6F
:103B700089810E9490179301820140E059EE64EA26
:103B800075E38D819E810E94531C56CF40E056E420
:103B900063EC73E2C6010E94531CEA81FB816085DD
:103BA0006F7B89810E94901727E0E22E93018201AA
:103BB00047E0000F111F221F331F4A95D1F740E045
:103BC00056E463EC73E2DDCFE98182E2E13009F093
:103BD00082CFF2E3FA83DCCECF92DF92EF92FF92B4
:103BE000CF93DF936B017C01CDE8D4E0CB82DC8204
:103BF000ED82FE8282EC91E00E94101B2AE0B70168
:103C0000A60185EA94E00E94AA1A67E871E085EAB5
:103C100094E00E949B1A4B855C856D857E8520E033
:103C200080E00E94A81C4F85588969897A8920E024
:103C300081E00E94A81C4B895C896D897E8920E007
:103C400082E00E94A81CDF91CF91FF90EF90DF905F
:103C5000CF900895CF92DF92EF92FF921F93CF9370
:103C6000DF93EC016C0181E1C80ED11C88EF91E07B
:103C70000E94101B7E011AE5CE14DF0491F0F701BB
:103C800061917F01162785EA94E00E94F61A62ECA2
:103C900073E085EA94E00E94271B812F0E94FD1AA1
:103CA000EBCF85E192E00E94101B112391F060E3BD
:103CB00072E085EA94E00E94271B812F0E94FD1A82
:103CC00080E0DF91CF911F91FF90EF90DF90CF9038
:103CD000089568816093940483E00E94931669813B
:103CE00080E00E9490176A8181E00E9490176B81AA
:103CF00082E00E9490174C815D816E817F8120E07F
:103D000080E00E94A81C488559856A857B8520E053
:103D100081E00E94A81C4C855D856E857F8520E032
:103D200082E00E94A81C81E0CCCF4F925F926F92FC
:103D30007F928F929F92AF92BF92CF92DF92EF923B
:103D4000FF920F931F93CF93DF93982E69017A010F
:103D50009EE6892E880E10E0C62FD0E05E018CE032
:103D6000A80EB11C2AE0422E512C612C712C882DFA
:103D700090E090935C0580935B05B0925E05A09205
:103D80005D05C114D104E104F10409F44AC0812F96
:103D90008B7F833009F047C067E472E08FE495E0E1
:103DA0000E94271B85EF880E1F5F1B3001F70F3F16
:103DB00039F1AE01425F5F4F692D70E0802F002E18
:103DC000000C990B2AE030E0033034F029E030E0B9
:103DD000063014F028E030E0281B390B129FC00198
:103DE000139F900D1124680F791FEE24E394F12C9A
:103DF00002E010E02BE030E08FE495E00E949814A0
:103E0000DF91CF911F910F91FF90EF90DF90CF90B6
:103E1000BF90AF909F908F907F906F905F904F90EA
:103E20000895111113C0C701B601A30192010E94A8
:103E3000BB3080E3860F0E949F13C701B601A30128
:103E400092010E94BB3069017A01ACCF62EC73E051
:103E50008FE495E00E94271BF0CFAF92BF92DF92D4
:103E6000EF92FF920F931F93CF93DF93D82E162FCD
:103E7000F42EE22E70E060E08FE495E00E941C1AC0
:103E800088EF9BE0909369058093680510925C052C
:103E900010925B05CCE0D0E0D0935E05C0935D0549
:103EA00069E472E08FE495E00E94271B612F8FE4A4
:103EB00095E00E94F61A84E290E090935C0580936E
:103EC0005B05D0935E05C0935D0582E4111101C0CE
:103ED00081E40E949F13A12EB12CE5012196FE01E1
:103EE000EE0FFF1FEE0FFF1FE357FB4F87819085FB
:103EF000A185B28581342AE3920729E6A2072DE045
:103F0000B2070CF0B7C0813821ED920720EFA2076D
:103F100028E0B2070CF0B0C081329D49A44BB640F6
:103F20000CF0ACC085E20E949F1382E490E0909375
:103F30005C0580935B058CE090E090935E05809338
:103F40005D05F501E357FB4F8085837009F498C048
:103F5000813009F497C0823009F496C088E30E944A
:103F60009F136BE472E08FE495E00E94271B809121
:103F7000940490E002C0959587951A95E2F701E0C8
:103F800010E024E130E047E050E06BE670E080FDB7
:103F900042C025E030E04CE050E06BE670E08FE49A
:103FA00095E00E9438192BE030E042E050E060E7F5
:103FB00070E08FE495E00E94A91925E030E042E02E
:103FC00050E060E770E08FE495E00E9438192BE044
:103FD00030E042E050E065E770E08FE495E00E9459
:103FE000A91925E030E04CE050E065E770E08FE48F
:103FF00095E00E9438192BE030E042E050E06AE79B
:1040000070E08FE495E00E94A91925E030E042E0DD
:1040100050E06AE770E08FE495E00E943819CC0F19
:10402000DD1FCC0FDD1FC357DB4F2F81388549853E
:104030005A850E2D6EE086E00E94951E60916A05FD
:1040400070916B05FF2011F1EE24EA94FE2C10E034
:1040500000E020915905409157058D2D0E94400F99
:10406000DF91CF911F910F91FF90EF90DF90BF9064
:10407000AF90089581E257CF84E355CF86E353CFC5
:1040800082E36DCF84E36BCF86E369CFF12CE12C23
:104090000FEF1FEFDECFCF92DF92EF92FF920F93E1
:1040A0001F93CF93DF93EC016A017B01C114D1040C
:1040B000E104F10439F4C12C48E4D42E48EEE42E96
:1040C000FF24F394FE01FF96C082D182E282F38244
:1040D00081E28DAF80E28EAF369610818FA987FD89
:1040E00007C061E00E949D0661E08FA90E946F06F3
:1040F00061E088AD0E949D0661E088AD0E946F0678
:104100008DA9811182C040E052E16AE770E0C416D7
:10411000D506E606F70640F47695679557954795D8
:104120008F5F8630A1F787E0212F2C702065982FB4
:104130009695922B99A3809581708AA3812F90E008
:10414000B0E0A0E08BA39CA3ADA3BEA31FB7F894DF
:1041500080912804811127C0E9E2FCE08491EBE022
:10416000FCE09491E82FF0E0EE0FFF1FE652F44FD1
:10417000A591B491EC91E92321F461E08AE00E94D9
:104180006F0661E08AE00E949D068CB580618CBD5F
:104190008CB580648CBD61E08DE00E949D0661E07D
:1041A0008BE00E949D06809128048F5F80932804F5
:1041B0001FBF8EA987FD75C061E00E949D0661E06A
:1041C0008EA90E946F0664E670E080E090E00E9495
:1041D000FE0660E08EA90E946F0664E670E080E053
:1041E00090E00E94FE0661E08EA90E946F0668ECD6
:1041F00070E080E090E0DF91CF911F910F91FF90F0
:10420000EF90DF90CF900C94FE060FE11CE0F12CB4
:104210008130B9F461E08AA50E949D0660E08AA51C
:104220000E946F0661E08CA50E949D0660E08CA54F
:104230000E946F068BA587FDBCCF60E00E949D06A3
:10424000B8CFF8018491E82FF0E0EE0FFF1FEB5E8E
:10425000F34F859194912F8D38A12817390741F498
:1042600061E08F2D0E949D0660E08F2D0E946F06F9
:10427000F3940F5F1F4FF4E1FF12E3CF61E08EA5CF
:104280000E949D0661E08EA50E946F068FA587FDA6
:1042900090CF61E00E949D0661E08FA50E946F06AD
:1042A00088CFDF91CF911F910F91FF90EF90DF901A
:1042B000CF90089585ED8093BC0080916504909126
:1042C0006604A0916704B09168040796A11DB11D12
:1042D00023E0B695A795979587952A95D1F72091D4
:1042E000BC0024FD03C0109263040895409165044E
:1042F000509166046091670470916804452B462BC9
:10430000472B69F30097A105B10541F02AE22A95F0
:10431000F1F700C00197A109B109E1CF80916404D0
:104320000C9472161F920F920FB60F9211242F93B6
:104330003F938F939F93AF93BF9380913504909158
:104340003604A0913704B09138043091340423E04E
:10435000230F2D3758F50196A11DB11D209334046C
:104360008093350490933604A0933704B0933804B7
:104370008091390490913A04A0913B04B0913C049F
:104380000196A11DB11D8093390490933A04A09326
:104390003B04B0933C04BF91AF919F918F913F91AB
:1043A0002F910F900FBE0F901F90189526E8230FA6
:1043B0000296A11DB11DD2CF1F920F920FB60F9280
:1043C00011242F933F934F935F936F937F938F931A
:1043D0009F93AF93BF93EF93FF9385EA94E00E947E
:1043E000B107FF91EF91BF91AF919F918F917F9115
:1043F0006F915F914F913F912F910F900FBE0F9052
:104400001F9018951F920F920FB60F9211242F93A1
:104410008F939F93EF93FF93E091B504F091B604CF
:104420008081E091BB04F091BC0482FD1BC09081AF
:104430008091BE048F5F8F732091BF04821741F07B
:10444000E091BE04F0E0EB55FB4F958F8093BE04E6
:10445000FF91EF919F918F912F910F900FBE0F9031
:104460001F9018958081F4CF1F920F920FB60F9274
:1044700011242F933F934F935F936F937F938F9369
:104480009F93AF93BF93EF93FF938091B900887F81
:10449000803609F44AC0F0F5883209F4A7C018F54F
:1044A000803109F49BC0B8F4882309F4F9C088303E
:1044B00009F494C0FF91EF91BF91AF919F918F91BB
:1044C0007F916F915F914F913F912F910F900FBE10
:1044D0000F901F901895883109F488C0803251F7E9
:1044E0008093610414C0803409F49DC040F480338B
:1044F000B9F38833F9F68093610485ECB0C0803558
:1045000009F485C0883509F496C0883499F60E946C
:104510005A21D0CF883909F48CC038F5883729F072
:1045200050F4883611F0803729F683E080936304D5
:104530001092270457C0883809F47BC0803919F0DD
:10454000803809F0B7CF80912704803208F071C01D
:10455000E091270481E08E0F809327048091BB00B7
:10456000F0E0E95FFB4F80833DC0803B39F0E0F431
:10457000803A09F479C0883A09F09CCF84E08093AE
:1045800063041092060410920504E0912B04F0914C
:104590002C0409958091050481110FC081E080935E
:1045A00005041092E50309C0803C09F4A6CF883CBD
:1045B00009F4A3CF883B09F07DCFE091060481E0A8
:1045C0008E0F80930604F0E0EB51FC4F80818093C6
:1045D000BB00909106048091050429C080913E049F
:1045E0008093BB0085EC8093BC0064CF9091600405
:1045F00080915F04981758F5E091600481E08E0F78
:1046000080936004F0E0E15CFB4F8081E9CFE091B2
:10461000600481E08E0F809360048091BB00F0E025
:10462000E15CFB4F80839091600480915F04981758
:10463000C8F285E8D8CFE091600481E08E0F8093C6
:1046400060048091BB00F0E0E15CFB4F80838091CF
:10465000620481115CCF81E080933D0484EA809301
:10466000BC001092630426CF85EC8093BC001092AE
:10467000630480912704803230F4E0912704F0E055
:10468000E95FFB4F10826091270470E0E0912904FC
:10469000F0912A0487E094E00995109227040ACF4C
:1046A0001092610434CF1F920F920FB60F92112413
:1046B0008F939F93EF93FF9380917405909175056D
:1046C000892BC1F4E0916E05F0916F058081909186
:1046D0007205892379F4E0917005F091710580816C
:1046E00090917305892379F081E090E090937505AE
:1046F00080937405FF91EF919F918F910F900FBE62
:104700000F901F90189582E090E0F0CF8F929F92CB
:10471000AF92BF92CF92DF92EF92FF921092A804D5
:104720001092A70488EE93E0A0E0B0E08093A90483
:104730009093AA04A093AB04B093AC042BE031E0B7
:104740003093A6042093A50425EC30E03093B20406
:104750002093B10424EC30E03093B4042093B304EC
:1047600020EC30E03093B6042093B50421EC30E027
:104770003093B8042093B70422EC30E03093BA04AD
:104780002093B90426EC30E03093BC042093BB04A2
:104790001092BE041092BF041092C0041092C10483
:1047A0001092450510924405809346059093470565
:1047B000A0934805B09349058DE191E0909343059E
:1047C000809342051092BA051092B90520E830E0B6
:1047D0003093BC052093BB0580EA90E09093BE0522
:1047E0008093BD053093C0052093BF059093C2050B
:1047F0008093C1051092CD051092C4051092C30597
:104800001092C6051092C50541E04093CC05409337
:10481000CB058FEF9FEF9093CA058093C9059093C6
:10482000C8058093C7054093CE051092CF0510921E
:10483000D1051092D0051092EC0555E05093ED058E
:1048400056E05093EE0554E05093EF051092F105B9
:104850001092F0051092F3051092F2051092F405F3
:104860001092F5051092F6051092F7051092F805D2
:104870001092F9056EE475E07093D7056093D60544
:10488000E3E2FCE0E491F0E0EE0FFF1FEB5EF34F9C
:10489000659174917093D5056093D405E5E0FCE0D3
:1048A00054915093EA05E5E2FCE0E491F0E0EE0F6C
:1048B000FF1FEB5EF34F659174917093D305609386
:1048C000D205E7E0FCE0E491E093E805E095E093B1
:1048D000E905E52FE095E093EB051092FA051092BB
:1048E000FB051092FC056BE571E07093B8056093D1
:1048F000B70550E15093AA0572E3872E912CA12CA5
:10490000B12C8092AB059092AC05A092AD05B0920F
:10491000AE05E4EFCE2EDD24D394E12CF12CC09231
:10492000AF05D092B005E092B105F092B20551E129
:1049300050939D0580929E0590929F05A092A005A0
:10494000B092A105C092A205D092A305E092A40561
:10495000F092A50558E050939005809291059092B1
:104960009205A0929305B0929405C0929505D092BD
:104970009605E0929705F092980557E050938305CD
:104980008092840590928505A0928605B092870555
:10499000C0928805D0928905E0928A05F0928B0535
:1049A0005CE0509376058092770590927805A0920E
:1049B0007905B0927A05C0927B05D0927C05E09291
:1049C0007D05F0927E055EE050936C055FE05093AC
:1049D0006D051092520510925105309354052093A5
:1049E000530560E270E0709356056093550530936F
:1049F00058052093570570935A05609359051092F6
:104A0000650510925C0510925B0510925E05109290
:104A10005D05409364054093630590936205809320
:104A200061059093600580935F0540936605109241
:104A3000670510926905109268058FE291E09093E6
:104A4000500580934F0580E092E00E942B319093B7
:104A50006B0580936A05009741F020E032E0FC018D
:104A6000A901119241505040E1F7FF90EF90DF9083
:104A7000CF90BF90AF909F908F900895CF93DF938A
:104A8000CDB7DEB769970FB6F894DEBF0FBECDBFC6
:104A9000789484B5826084BD84B5816084BD85B519
:104AA000826085BD85B5816085BD80916E00816025
:104AB00080936E00109281008091810082608093CB
:104AC00081008091810081608093810080918000CD
:104AD0008160809380008091B10084608093B100F8
:104AE0008091B00081608093B00080917A008460F2
:104AF00080937A0080917A00826080937A0080911E
:104B00007A00816080937A0080917A008068809337
:104B10007A001092C10010922E0410922D0410926F
:104B20008A04109289040E94541681E397E09093BE
:104B30002C0480932B0482E397E090932A048093C3
:104B40002904E091B504F091B60482E08083E091FD
:104B5000B104F091B2041082E091B304F091B40476
:104B600080E180831092BD04E091B904F091BA0411
:104B700086E08083E091B704F091B8048081806181
:104B80008083E091B704F091B804808188608083CD
:104B9000E091B704F091B804808180688083E0914F
:104BA000B704F091B80480818F7D80838FE492E018
:104BB0000E94101B8CE790E00E948C2E8A8B8DE760
:104BC00090E00E948C2E8B8B8EE790E00E948C2EC2
:104BD0008C8B8FE790E00E948C2E8D8B8A899B892D
:104BE000AC89BD8922E435E030938E0420938D0496
:104BF00020E620938F048093900490939104A093D7
:104C00009204B093930462ED87EB0E9493166FEFCA
:104C100083E00E9493166CE080E10E9493166CE2A0
:104C200081E10E9493166CE282E10E94931660EA91
:104C300081EB0E949316BE016F5F7F4F90E080E092
:104C40000E94731ACE0101960E942A1E81112AC069
:104C50001092940460E083E00E9493166FE080E07D
:104C60000E9490176FE281E00E9490176FE282E04D
:104C70000E94901720E040E452E46FE070E080E092
:104C80000E94A81C20E040E856E968E970E081E055
:104C90000E94A81C20E040E051EE65EF75E082E044
:104CA0000E94A81C61E083E00E949D0661E083E011
:104CB0000E946F0640E050E0BA0187EB95E00E9449
:104CC0004B2085E99BE00E94930D80E890E0909353
:104CD000C2058093C1059093C0058093BF0588E805
:104CE0009BE00E94930D82E08093FA0583E080931D
:104CF000FB058DE59BE00E94930D81E08093FD050F
:104D000060E087EB95E00E949A0E61E087EB95E00A
:104D10000E949A0E70E060E087EB95E00E947B14A1
:104D20008091680590916905892B49F480915D0512
:104D300090915E05069690935E0580935D0588EFE1
:104D40009BE0909369058093680581E080936305FB
:104D5000809364058AEA95E00E94A2188DE995E0A7
:104D60000E94A21880E995E00E94A21883E895E0CD
:104D70000E94A21886E795E00E94A218109275057D
:104D80001092740562E080916C050E949D0662E0BD
:104D900080916D050E949D0680916C0590E0FC015C
:104DA000E15EF34F2491FC01EF5FF34F34913093B8
:104DB000720580916D0590E0FC01EF5FF34FE49187
:104DC000E0937305E22FF0E0EE0FFF1FE053F44F86
:104DD0004591549150936F0540936E05FC01E15E3F
:104DE000F34FE491F0E0EE0FFF1FE053F44F859195
:104DF000949190937105809370052230A1F0233037
:104E000009F4B0C063EB72E085EA94E00E94271BCE
:104E100060916C0585EA94E00E94F61A80916D0518
:104E20000E94FD1A0AC0809168008160809368002A
:104E3000E0916B00E32BE0936B0081E090E09093B6
:104E40003304809332041092310410923004109293
:104E50002F04E4E02E2E312C77E4C72ED12C809144
:104E60003204909133048330910509F462C20CF04E
:104E700084C08130910509F494C0029709F41EC1E1
:104E800080910001882309F45AC0809132049091E6
:104E900033048330910509F4DBC40CF044C4813041
:104EA000910509F46AC4029709F488C470E060E0CF
:104EB0008FE495E00E941C1A809168059091690525
:104EC000892B49F080915D0590915E05069790933E
:104ED0005E0580935D05109269051092680501E0FA
:104EE00010E020E830E050E040E070E060E08FE467
:104EF00095E00E943819E0903204F090330483E08A
:104F0000E816F10409F459C60CF028C5A1E0EA1628
:104F1000F10409F488C5B2E0EB16F10409F4F4C514
:104F200060916A0570916B05F12CE12C00E018EF9F
:104F300020E240E880E60E94400F109200016AE003
:104F400070E080E090E00E94FE0680E090E0892B17
:104F500009F485CF0E949D07882309F47DCF0E9424
:104F600000007ACF80916800826080936800E091B1
:104F70006C00E32BE0936C0060CF8430910509F462
:104F80009DC2059709F07CCF8AEA95E00E94261819
:104F90008130910509F074CF9093330480933204EB
:104FA00087C08091740590917505109275051092D7
:104FB000740581309105D9F1029709F445C08AEA58
:104FC00095E00E9426188130910509F445C00297AA
:104FD00009F44CC080E995E00E942618019749F435
:104FE000E3E0F0E0F0933304E093320481E0809357
:104FF000000183E895E00E942618019749F485E0B6
:1050000090E0909333048093320481E08093000118
:1050100086E795E00E9426188130910571F102978C
:1050200009F02ECF309233042092320441C0809197
:105030003104811107C082E08093310481E08093C4
:105040000001BDCF8150F8CF809131048F5F833054
:1050500098F310923104F2CF82E090E09093330401
:105060008093320481E080930001B4CFA3E0B0E0EC
:10507000B0933304A0933204F5CF2091940430917F
:105080003104032E01C0880F0A94EAF7422F50E042
:1050900002C0559547953A95E2F740FF0DC08095BF
:1050A0008223809394046091940483E00E94931679
:1050B00081E080930001E4CE822BF3CFE0913104B4
:1050C00094E0E99FD0011124AF56BB4F17964D9045
:1050D0005D906D907C901A97809174059091750504
:1050E00010927505109274058130910569F102974F
:1050F00009F464C086E795E00E942618019709F03C
:10510000CBC0E0903004F12CBFEFEB1AFB0A0F2C60
:10511000000C000B110B4701580121E030E040E08A
:1051200050E0E1E08E1A9108A108B108FFEF8F1658
:105130009F06AF06BF0609F46FC0AAE0B0E00E9468
:105140001A319B01AC01EDCFE09030048E2C912CF4
:10515000B12CA12C21E030E040E050E0A1E08A1A1F
:105160009108A108B108BFEF8B169B06AB06BB06E2
:1051700039F0AAE0B0E00E941A319B01AC01EECFF9
:10518000420E531E641E751EF1E04F16F3EA5F06D1
:10519000F1EE6F06F1E17F063CF0412C63EA562EFA
:1051A00061EE662E61E1762E20E0B301A2018E2F22
:1051B0000E94A81C81E0809300019CCFE090300405
:1051C0008E2C912CB12CA12C21E030E040E050E05D
:1051D00081E0881A9108A108B1089FEF8916990605
:1051E000A906B90639F0AAE0B0E00E941A319B0185
:1051F000AC01EECF421A530A640A750AA4EC4A16AF
:10520000A9E05A06610471047CF654EC452E59E07D
:10521000552E612C712CC8CFC301B2010E94DD3024
:1052200029013A0161E070E080E090E021E0E21ABB
:10523000F10801091109AFEFEA16FA060A071A0781
:1052400039F0AAE0B0E09B01AC010E941A31EECF28
:10525000A30192010E94AB30AB01BC01443CB9E018
:105260005B076105710524F444EC59E060E070E0EF
:105270004130E3EA5E07E1EE6E07E1E17E0724F0EC
:1052800040E053EA61EE71E120E0809131040E9438
:10529000A81C81E0809300018AEA95E00E9426180C
:1052A0008130910539F4909333048093320481E086
:1052B0008093000183E895E00E942618019751F43D
:1052C00080913004811130C088E08093300481E007
:1052D000809300018DE995E00E942618019751F412
:1052E000809130048F5F893008F58093300481E02D
:1052F0008093000180E995E00E942618019709F04B
:10530000BFCD80913104E82FF0E0E357FB4F90854B
:10531000692F637070E06F5F7F4F637077279C7FAA
:10532000692B0E949017C4CE8150CFCF10923004C9
:10533000DECF8091740590917505109275051092DD
:1053400074058130910509F4A4C0029709F4AEC038
:105350008AEA95E00E9426188130910539F49093ED
:1053600033048093320481E08093000183E895E068
:105370000E9426187C01019701F589ED92E00E94B8
:10538000101B00912F0421E1029F80011124BE0116
:105390006F5F7F4FC8010E94731A89898095898B3E
:1053A000BE016F5F7F4FC8010E94431AF092330421
:1053B000E092320481E08093000186E795E00E944C
:1053C0002618019709F045C08AEE92E00E94101B52
:1053D00089EF92E00E94101B1AE544E9E42E44E0B4
:1053E000F42ED7016D917D01162785EA94E00E9485
:1053F000F61A62EC73E085EA94E00E94271B812F85
:105400000E94FD1AB4EAEB16B4E0FB0650F386E105
:1054100093E00E94101B1093A40481E1E4E9F4E0FE
:10542000DE01119601900D928A95E1F780912F048B
:10543000BE016F5F7F4FE1E18E9FC00111240E948A
:10544000431A81E090E09093330480933204809378
:10545000000180E995E00E9426188C01019709F06F
:105460000FCD81E393E00E94101B80912F04BE01B9
:105470006F5F7F4FA1E18A9FC00111240E94731AC0
:10548000CE0101960E942A1E109333040093320429
:105490000FCE80912F04811107C085E080932F04E7
:1054A00081E08093000154CF8150F8CF80912F0488
:1054B0008F5F863098F310922F04F2CF40909004C3
:1054C00050909104609092047090930449825A82A3
:1054D0006B827C82809174059091750510927505A0
:1054E0001092740581309105A9F1029709F467C003
:1054F00086E795E00E942618019709F0B9C08981D6
:105500009A81AB81BC818E8B9F8BA88FB98F409085
:105510003004512C9FEF491A590A052C000C6608DB
:1055200077088301720121E030E040E050E0A1E023
:10553000EA1AF10801091109BFEFEB16FB060B0788
:105540001B0709F46AC0AAE0B0E00E941A319B016F
:10555000AC01EDCFE0903004F12C10E000E061E010
:1055600070E080E090E0B1E0EB1AF1080109110968
:10557000EFEFEE16FE060E071E0739F0AAE0B0E0C8
:105580009B01AC010E941A31EECF640D751D861D82
:10559000971D6138F3EC7F07F9EC8F07F1E09F0767
:1055A00024F060E873EC89EC91E069837A838B8363
:1055B0009C830E94EC1D81E08093000199CFE090D4
:1055C0003004F12C10E000E021E030E040E050E059
:1055D00081E0E81AF108010911099FEFE916F906BF
:1055E0000907190739F0AAE0B0E00E941A319B01BF
:1055F000AC01EECFC301B201621B730B840B950BA0
:105600006115ADE27A07A1E38A07A1E09A076CF67B
:1056100060E07DE281E391E0C8CF6E897F89888D6B
:10562000998D0E94DD3079018A0161E070E080E0AF
:1056300090E0E1E04E1A510861087108FFEF4F1643
:105640005F066F067F0639F0AAE0B0E09B01AC016F
:105650000E941A31EECFA80197010E94AB306983F6
:105660007A838B839C830E94EC1D81E080930001F0
:105670008AEA95E00E9426188130910539F49093CA
:1056800033048093320481E08093000183E895E045
:105690000E942618019751F48091300481113EC078
:1056A00088E08093300481E0809300018DE995E0EB
:1056B0000E942618019751F4809130048F5F893041
:1056C00078F58093300481E08093000180E995E0D3
:1056D0000E942618019709F0D3CB80E493E00E9442
:1056E000101BCE0101967C010CE710E0D7019D90C4
:1056F0007D01C8010E948C2E981621F0692DC801E9
:105700000E94942E0F5F1F4F0038110579F7E1E0DA
:10571000F0E0F0933304E0933204CACC8150C1CF5F
:1057200010923004D0CF8430910509F4D4C005978D
:1057300009F0BCCB70E060E087EB95E00E947B1441
:105740001092D1051092D00580EE97E09093CA0593
:105750008093C9059093C8058093C7051092C4052E
:105760001092C3051092C6051092C5056FE472E051
:1057700087EB95E00E94271B99CB41E08091310493
:10578000811140E02FEF60E080E00E942D1F41E09A
:1057900080913104813009F040E02FEF61E080E238
:1057A0000E942D1F41E080913104823009F040E0D9
:1057B0002FEF62E080E40E942D1F78CB80913104AE
:1057C000811119C02091300441E060E00E942D1F3A
:1057D000809131048130F1F42091300441E061E0A6
:1057E00080E20E942D1F80913104823011F52091BA
:1057F000300441E0DECFF12CE12C00E210E020E8A3
:1058000030E050E040E070E060E087EB95E00E941F
:10581000ED0ADECFF12CE12C00E210E020E830E0D0
:1058200040E250E070E060E087EB95E00E94ED0A16
:10583000DACFF12CE12C00E210E020E830E040E487
:1058400050E070E060E087EB95E00E94ED0A2ECB1F
:10585000B0902F04812C912C28EF622E2BE0722E19
:105860003CE0432E512C70E060E08FE495E00E9414
:105870001C1A709269056092680510925C0510927E
:105880005B0550925E0540925D0568E573E08FE42C
:1058900095E00E94271B692D8FE495E00E94F61A7F
:1058A00060916A0570916B05EE24EA94FE2C10E07D
:1058B00000E0B91421F0F12CE12C0FEF1FEF20E1F3
:1058C00040E8882D0E94400F9394F0E18F0E26E06F
:1058D0009212C9CFEBCA0091300470E060E08FE40F
:1058E00095E00E941C1A88EF9BE0909369058093D5
:1058F000680510925C0510925B058CE090E0909337
:105900005E0580935D0560E673E08FE495E00E949C
:10591000271B209190043091910440919204509162
:1059200093046DE080E00E94951E60916A0570917D
:105930006B058FE1E82EF12C0FEF1FEF2091590539
:105940004091570580E00E94400FF12CE12C00E6C9
:1059500010E020E830E040E250E073CFE4E0EE16E3
:10596000F10409F493C1F5E0EF16F10409F0D8CA87
:1059700010925C0510925B0530925E0520925D05E9
:105980006EEB73E08FE495E00E94271B10925C059C
:1059900010925B05E4E1F0E0F0935E05E0935D05B5
:1059A0006EEB73E08FE495E00E94271B01E010E0AE
:1059B00020E230E050E040E063E270E08FE495E008
:1059C0000E94A91980E590E090935C0580935B05A7
:1059D00082E090E090935E0580935D056EE773E052
:1059E0008FE495E00E94271BA0E3B0E0B0935C0534
:1059F000A0935B050DE010E010935E0500935D053C
:105A00006EE773E08FE495E00E94271B80E790E04B
:105A100090935C0580935B0510935E0500935D0594
:105A20006EE773E022C110925C0510925B05309224
:105A30005E0520925D056BE673E08FE495E00E94C1
:105A4000271B10925C0510925B0584E190E0909317
:105A50005E0580935D0561E773E08FE495E00E9449
:105A6000271B01E010E020E230E050E040E063E27C
:105A700070E08FE495E00E94A91981E490E0909392
:105A80005C0580935B05A2E0B0E0B0935E05A09357
:105A90005D0567E773E08FE495E00E94271BE0E374
:105AA000F0E0F0935C05E0935B050DE010E01093EF
:105AB0005E0500935D056EE773E08FE495E00E945C
:105AC000271B87E690E090935C0580935B0510931D
:105AD0005E0500935D0560E873E08FE495E00E9449
